:020000040800F2
:1000000048050020A5010008CF230008732200083E
:10001000CD230008490700084D2F0008000000000C
:100020000000000000000000000000005127000850
:100030004B07000800000000D123000853270008E8
:10004000BF010008BF010008BF010008BF01000890
:10005000BF010008BF010008BF010008BF01000880
:10006000BF010008BF010008BF010008BF01000870
:10007000BF010008BF010008BF010008BF01000860
:10008000BF010008BF010008BF010008BF01000850
:10009000BF010008BF010008BF010008BF01000840
:1000A000BF010008BF010008BF010008292800089F
:1000B000BF0100080000000000000000BF010008B0
:1000C000BF0100080000000000000000BF010008A0
:1000D00000000000BF010008BF0100080000000090
:1000E000BF010008BF010008000000000000000080
:1000F0000000000000000000000000000000000000
:10010000000000000000000000000000BF01000827
:100110000000000000000000BF010008BF0100084F
:10012000BF010008BF010008BF010008BF010008AF
:10013000BF010008000000000000000000000000F7
:10014000BF010008BF010008BF010008BF0100088F
:10015000BF010008BF010008BF010008BF0100087F
:10016000BF010008BF010008BF0100080000000037
:10017000BF010008BF0100080000000000000000EF
:10018000BF010008BF010008BF010008DFF810D060
:1001900000F0C8FA004800471D310008AFF30080A6
:1001A000480500200648804706480047FEE7FEE76E
:1001B000FEE7FEE7FEE7FEE7FEE7FEE7FEE7FEE717
:1001C000ED2700088D0100082DE9F05F05460020AD
:1001D00092469B4688460646814640241BE02846B8
:1001E00041464746224600F01DFA53465A46C01A79
:1001F000914110D311461846224600F004FA2D1AF8
:1002000067EB01084F4622460120002100F0FBF970
:1002100017EB00094E41201EA4F10104DFDC484623
:1002200031462A46434600F000B830BCBDE8C09FC6
:10023000D2B201E000F8012B491EFBD27047002228
:10024000F6E710B513460A4604461946FFF7F0FFD5
:10025000204610BD2DE9FE4F804681EA0300C00F05
:100260000C46009021F0004123F00045B8EB02005D
:10027000A94105D24046214690461C460B460246FF
:1002800023F00040104347D0270DC7F30A00C3F303
:100290000A510290401A019040286BDAC3F3130010
:1002A00040F4801B0098924620B10023D2EB030A51
:1002B00063EB0B0B01985946C0F14002504600F029
:1002C000A2F906460D4650465946019A00F0BAF981
:1002D00010EB08006141002487EA115284EAE773B9
:1002E0001A4340D0009A62B3019A012A4FEA07529A
:1002F00015DC001B61EB02014FF0004202EA0752DD
:10030000CDE90042001C41F5801132462B4600F039
:10031000BAF903B000F045B840462146F9E7001BA2
:1003200061EB0201001C41F5801300185B412018AD
:10033000A2F5001747EB030140EAD570B6196D41ED
:1003400011E06D084FEA360645EAC0754FEA0752DC
:10035000001B61EB0201001C41F5801149084FEAC6
:1003600030000019514132462B4603B000F01CB852
:1003700000F07AB90098012240000023D0EB02027D
:1003800063EBE073009821464FEAE074B8EB00009D
:1003900061EB0401E9E783F000435BE781F0004192
:1003A00058E730BCBDE8C08F30BCBDE8C04FFFF798
:1003B000DFBF2DE9FE4F81EA030404F0004421F081
:1003C000004100944FF0000B23F0004350EA010479
:1003D0005ED052EA03045BD0C3F30A54C1F30A555A
:1003E0002C44A4F2F3340194A0FB0254C1F3130192
:1003F00041F48011C3F3130343F4801301FB02445F
:1004000000FB034E840A970A44EA815447EA835763
:10041000A4FB076802958D0A05FB07854FEA932C1C
:1004200004FB0C542705029D4FEA065847EA16378D
:10043000B5EB08056EEB070C870E920E47EA8117A5
:1004400042EA8312A7FB0201B6EB0B0164EB000446
:100450002B0D43EA0C335E1844EB1C50DA46514630
:10046000E7FB0201C5F313044FEA0B3343EA1453CD
:100470004FEA0432019C43EA0603A4F10C040294FF
:10048000009CCDE900B400F0FEF803B000F003B822
:1004900000200146F9E730BCBDE8C08F2DE9F04DE2
:1004A00081EA030404F0004B21F0004514464FF0AC
:1004B000000A23F0004150EA050220D054EA01026C
:1004C0001DD0C5F30A570246C5F31303C1F3130049
:1004D000C1F30A5640F4801543F48013A7EB0608D5
:1004E000101BD64608F2FD3873EB050002D308F165
:1004F000010801E092185B41B8F1000F03DA002017
:100500000146BDE8F08D00204FF480110646844678
:100510000EE0171B73EB050705D3121B63EB0503F6
:1005200006434CEA010C49084FEA300092185B413F
:1005300050EA0107EDD152EA030012D082EA04002A
:1005400083EA0501084305D0101BAB4106D2012206
:10055000002306E000224FF0004302E06FF00102AA
:1005600053101AEB06004CEB085110EB0A0041EB5C
:100570000B01BDE8F04D00F077B80EB5C10F80EA71
:10058000E0700844CA07002140F233438DE80E00B2
:100590000A460B4600F077F803B000BD70B5C1F312
:1005A0000A5201F000450024C1F3130140F2FF3369
:1005B00041F480119A4201DA002070BD40F23343C9
:1005C0009A42A2F2334203DC524200F02BF800E0E0
:1005D00090402C43F1D0404270BD30B50B460146EF
:1005E00000202022012409E021FA02F59D4205D3D2
:1005F00003FA02F5491B04FA02F52844151EA2F17C
:100600000102F1DC30BD202A04DB203A00FA02F1BD
:10061000002070479140C2F1200320FA03F31943F0
:1006200090407047202A04DB203A21FA02F0002192
:10063000704721FA02F3D040C2F1200291400843F2
:1006400019467047202A06DBCB17203A41FA02F000
:1006500043EAE07306E041FA02F3D040C2F120021F
:10066000914008431946704710B5141E73F10004F9
:1006700008DA401C41F1000192185B411A4301D194
:1006800020F0010010BD2DE9F04D92469B4611B1BE
:10069000B1FA81F202E0B0FA80F220329046FFF720
:1006A000B2FF04460F4640EA0A0041EA0B015346F6
:1006B0005A46084313D0114653EA010019D0C8F135
:1006C00040025046FFF7AEFF05460E4650465946DB
:1006D0004246FFF798FF084305D0012004E020467A
:1006E0003946BDE8F08D0020054346EAE0762C430C
:1006F00037430A986305E40AA0EB08000022FD0ACC
:1007000044EA47540A3002D500200146E9E70105D2
:1007100010196941DDE9084500196941BDE8F04D4E
:10072000A2E70000064C074D06E0E06840F0010338
:1007300094E8070098471034AC42F6D3FFF72AFD3F
:100740001835000838350008FEE7704770B50446D4
:1007500000F0E4F80546601C02D004480078044428
:1007600000F0DCF8401BA042FAD370BD000000206E
:100770002DE9FC4FDFF880A1002301250AF1040BCD
:1007800003244FF00F0C0BF1040EAEE005FA03F654
:1007900032406FD04F68012F05D0022F03D0112FA8
:1007A00001D0122F17D1D0F808905F0004FA07F893
:1007B00029EA08090097D1F80C8008FA07F848EAF6
:1007C0000908C0F808804768B7430E79C6F30016D9
:1007D0009E403E434660C6684FEA430804FA08F765
:1007E000BE4301978F6807FA08F73743C7604E6822
:1007F000022E01D0122E13D1DE0800EB86060096E1
:10080000366A5F07FF0E0CFA07F926EA0906D1F8E7
:10081000109009FA07F949EA0609009EC6F82090E7
:100820000768019EB7430E7906F0030606FA08F63C
:100830003E4306604E68F60056D5304E376E47F0A0
:1008400001073766366E23F0030706F001060096AF
:100850002B4E3E44B146B6689F074FEA17780CFA14
:1008600008F7BE43B0F1904F05D0264FB84204D1EF
:10087000012708E038E0002705E0234FB84201D106
:10088000022700E0072707FA08F73743C9F808707E
:10089000DAF800605746D1F8048096435FEAC8381A
:1008A00000D516433E60DBF800605F46D1F8048057
:1008B00096435FEA883800D516433E60DEF8006054
:1008C0007746D1F8048096435FEAC82800D51643DE
:1008D0003E60094F0C373E68D1F8048096435FEACA
:1008E000882800D516433E605B1C0A6832FA03F67E
:1008F0007FF44CAF00F00AB8000401400010024041
:100900000000014000040048000800481CBCBDE88D
:10091000E08F0AB181617047816270470148806849
:1009200070470000000000200248816802781144EE
:10093000816070470000002010B50024032000F003
:1009400071F8002000F008F808B1012401E000F07F
:1009500025F8204610BD000070B50E4E0546002457
:10096000307898B14FF47A71B1FBF0F00A49096818
:10097000B1FBF0F001F053F840B9102D06D200227F
:100980002946501E00F02EF8756000E00124204634
:1009900070BD0000000000200C000020094808B5D0
:1009A000016E41F001010166016E01F0010100914B
:1009B000816D41F080518165806D00F08050009024
:1009C00008BD000000100240002809DB00F01F02F3
:1009D000012191404009800000F1E020C0F80011A1
:1009E00070470000F0B40E4B1B680C46C3F30223A3
:1009F000C3F10705042D00D90425191D072901D2CB
:100A0000002300E0DB1E012606FA05F1491E214005
:100A100099409E40761E16403143F0BC02F0ACBABD
:100A20000CED00E0064900F0070208684FF6FF03EE
:100A3000184040EA0220034A104308607047000053
:100A40000CED00E00000FA051649B0F5007F0868DB
:100A5000C0F3412009D0022805D0086820F4C06006
:100A600040F480600860002070470128FBD00868CF
:100A700020F4C06040F4007008600B483222006827
:100A800050430A4AB0FBF2F0401C00E0401E4A69A5
:100A9000520501D50028F9D148694005E3D5032066
:100AA00070470000007000400C00002040420F0022
:100AB0000248006800F4C060704700000070004009
:100AC0000248016841F48071016070470070004085
:100AD0000248016841F004010160704700100240C3
:100AE0002DE9F84F0446002700889C4D3E4600053E
:100AF00015D5E06B60B1B0F5000F04D0B0F5400F34
:100B00002BD001270AE0E86840F48030E86024E058
:100B10000021201D01F05EFC07001ED03E4620682B
:100B2000800338D5A86D4FF00008C00009D4A86D27
:100B300040F08050A865A86D4FF0010800F080508B
:100B40000090DFF81CA2DAF8001041F48071CAF8B6
:100B50000010FFF7E3FE814610E0D5F88800E16B56
:100B600020F440000843C5F88800D8E7FFF7D6FE18
:100B7000A0EB0900022801D9032704E0DAF80000FD
:100B8000C005F3D5EFB33E46B8F1000F03D0A86D12
:100B900020F08050A8652078C00707D0D5F88800DD
:100BA000216A20F003000843C5F8880020788007F8
:100BB00007D5D5F88800616A20F00C000843C5F815
:100BC00088002078800607D5D5F88800A16A20F42F
:100BD00040600843C5F888002088800507D5D5F80F
:100BE0008800616B20F440200843C5F88800208805
:100BF000400509D5D5F88800A16B20F440100843C2
:100C000000E02EE0C5F888002078400607D5D5F82A
:100C10008800E16A20F440500843C5F88800208825
:100C2000C00507D5D5F88800216B20F44030084373
:100C3000C5F8880020884FF0006780044FF0806876
:100C40004ED5D5F88800216C20F040600843C5F8E7
:100C50008800206CB8423BD1E86840F48010E8601E
:100C60003EE0D5F8900010F4407014D0216D814220
:100C700011D0D5F89000D5F8901020F4407041F4D0
:100C80008031C5F89010D5F8901021F48031C5F866
:100C90009010C5F89000C00711D0FFF73FFE07463F
:100CA00041F2883907E000BFFFF738FEC11B494514
:100CB00001D9032668E7D5F890008007F4D5D5F868
:100CC0009000216D20F440700843C5F890005BE768
:100CD000404505D10121201D01F07CFB00B10646F5
:100CE0002068400317D5D5F88800616C20F040607B
:100CF0000843C5F88800606CB84204D1E86840F445
:100D00008010E86007E0404505D10121201D01F079
:100D100061FB00B106462088400411D5D5F8880053
:100D2000A16C20F040500843C5F88800A06CB0F1D9
:100D3000805F05D10221201D01F04CFB00B1064669
:100D40002088000406D555F8880FE16C20F080401B
:100D500008432860304600F005B80000001002404B
:100D60000070004018BCBDE8E08F00002DE9F0479E
:100D70000F46050058D0404E306800F00700B842DA
:100D800009D2306820F0070038433060306800F046
:100D90000700B84248D12878384CC0072CD0686882
:100DA000032811D0022812D0216898B149050029E2
:100DB0003ADAA16821F003010143A160FFF7AEFD1B
:100DC000804641F2883910E021688901EFE7216807
:100DD0008903ECE78907EAE7FFF7A0FDA0EB08012C
:100DE000494502D90320BDE8F087A068696800F092
:100DF0000C00B0EB810FEFD12878800705D5A068F3
:100E0000A96820F0F0000843A060306800F00700F7
:100E1000B8420BD9306820F00700384330603068A2
:100E200000F00700B84201D00120DCE72878400735
:100E300005D5A068E96820F4E0600843A060287840
:100E4000000706D5A068296920F4605040EAC10077
:100E5000A06000F03FF8A168094AC1F30311515C9A
:100E600001F01F01C8400749086007480068BDE855
:100E7000F047FFF771BD0000002002400010024063
:100E8000D03400080C00002004000020054806496A
:100E900000688968054AC1F30221515C01F01F0115
:100EA000C84070470C0000200010024010350008B8
:100EB0000548064900688968054AC1F3C221515CAA
:100EC00001F01F01C84070470C00002000100240D4
:100ED0001035000870B52549002318468A68CC688B
:100EE00012F00C0204F00306214C4FEA640509D00D
:100EF0000C2A05D0042A32D0082A00D1284670BD19
:100F0000012E10D10B681B0704D4D1F89430C3F321
:100F1000032302E00B68C3F30313164E56F8233085
:100F2000DAB10C2AEBD1C86800F00300022818D00F
:100F3000032818D01846CA68CB68C2F30212C3F35C
:100F400006234343521CB3FBF2F2C868C0F341606E
:100F5000401C4000B2FBF0F070BD184670BD20464A
:100F600070BD2046E7E72846E5E700000010024094
:100F70000024F400E03400082DE9F84304006FD0A9
:100F8000FE4DA86800F00C06E86800F00307207822
:100F9000C00664D576B10C2E01D1012F0AD0A0690C
:100FA000002828687AD040F001002860FFF7B6FCDE
:100FB00080465DE02868800702D5A0690028DED061
:100FC000216A2868000703D5286800F0F00004E0D3
:100FD000D5F89400F02202EA1010814216D9084692
:100FE00001F08EFA00283BD1286840F00800286004
:100FF0002868216A20F0F000084328606868E169E9
:1010000020F47F4040EA0120686016E0286840F044
:10101000080028602868216A20F0F0000843286052
:101020006868E16920F47F4040EA0120686026B9E1
:10103000206A01F065FA0028D5D1FFF74BFFA968B7
:10104000CF4AC1F30311515C01F01F01C840CD49E3
:101050000860CD480068FFF77FFC00287ED12EE0B5
:10106000CAE000BFFFF75AFCA0EB0800022876D8C0
:1010700028688007F6D5286840F0080028602868AE
:10108000216A20F0F000084328606868E16920F4D4
:101090007F4040EA0120686011E0FFE720F0010096
:1010A0002860FFF73BFC804606E000BFFFF736FCF8
:1010B000A0EB08000228DAD828688007F6D4207848
:1010C000C00740D0082E18D00C2E01D1032F14D009
:1010D0006068B0F5803F17D0B0F5A02F286817D012
:1010E00020F480302860286820F480202860606820
:1010F000E0B1FFF713FC804614E02868800322D596
:101100006068002878D01EE0286840F48030EDE761
:1011100040F480202860F7E7FFF700FCA0EB080010
:101120006428A4D828688003F6D50CE0FFF7F6FB06
:10113000804605E0FFF7F2FBA0EB0800642896D894
:1011400028688003F6D4207880073BD5042E11D080
:101150000C2E01D1022F0DD0E06801E0B6E1FFE0D6
:10116000002828681ED040F480702860FFF7D6FB66
:1011700007460CE0286840050CD5E0680028C1D07F
:1011800008E000BFFFF7CAFBC01B022893D82868FD
:101190004005F7D56868217C20F0F85040EA0160EE
:1011A00068600FE020F480702860FFF7B7FB074607
:1011B00005E000BFFFF7B2FBC01B0228B1D82868CA
:1011C0004005F7D42078000729D560690028D5F8B4
:1011D000940012D040F00100C5F89400FFF79EFB88
:1011E000074604E0FFF79AFBC01B022899D8D5F800
:1011F00094008007F6D512E02BE120F00100C5F83D
:101200009400FFF78BFB074605E000BFFFF786FB66
:10121000C01B022885D8D5F894008007F6D4207822
:10122000400766D5A86D0027C00008D4A86D40F01F
:101230008050A865A86D012700F0805000905348A9
:101240000168C90512D40168814641F480710160CA
:10125000FFF764FB804605E0FFF760FBA0EB0800AA
:1012600002287DD8D9F80000C005F5D5A06801286E
:1012700016D00528D5F8900017D020F00100C5F849
:101280009000D5F8900020F0040000BFC5F8900051
:10129000A06841F28839C0B1FFF740FB80460FE0FB
:1012A000D5F8900040F00100F0E740F00400C5F8E8
:1012B0009000F5E7FFF732FBA0EB080149454FD856
:1012C000D5F890008007F5D50EE0FFF727FB8046A4
:1012D00006E000BFFFF722FBA0EB080149453FD81D
:1012E000D5F890008007F5D41FB1A86D20F080508C
:1012F000A8652078800628D5606A0028D5F898006F
:1013000012D040F00100C5F89800FFF707FB074630
:1013100005E000BFFFF702FBC01B022820D8D5F86C
:1013200098008007F6D510E020F00100C5F898007D
:10133000FFF7F4FA074604E0FFF7F0FAC01B0228B3
:101340000ED8D5F898008007F6D4A06AA8B1022874
:1013500024D00C2E7DD0286820F08070286000E01A
:10136000B3E02868000103D4E86820F00300E860D7
:10137000E86807490840E8600CE09FE00010024080
:10138000D03400080C000020040000200070004051
:10139000FFFFEEFEFFF7C2FA044699E0E868E26A52
:1013A00000F00301914226D1216B00F07002090187
:1013B000103991421FD1626B00F4FE41B1EB022F54
:1013C00019D194F8382000F07841B1EBC26F12D1F6
:1013D000A18F00F4C00249084905A1F5001191420E
:1013E00009D194F8401000F0C06049084906A1F105
:1013F000007181424BD00C2E6FD0286840016CD414
:10140000286820F080702860FFF788FA064604E01C
:10141000FFF784FA801B022857D828688001F7D488
:10142000F4E90B016FF00F0202EB01110843218A6E
:101430005204490802EB4151A26841EA02210843E3
:10144000217D4FF07E42490802EB41610843217B38
:1014500000E042E040EAC160E968214A11400843E7
:10146000E860286840F080702860E86840F080708C
:10147000E860FFF753FA044605E000BFFFF74EFAB5
:10148000001B022821D828688001F7D523E02868AE
:10149000800120D4286840F080702860E86840F01F
:1014A0008070E860FFF73AFA044604E0FFF736FA86
:1014B000001B022809D828688001F7D50BE000BF7F
:1014C000FFF72CFA001B022802D90320BDE8F8839D
:1014D00028688001F4D40020F8E70120F6E7000036
:1014E0008C809D0170B5040009D0606A002540B170
:1014F00025616561A56294F85D0040B10CE00120B2
:1015000070BD6068B0F5827FF4D0E561F2E784F8E1
:101510005C50204600F056F8022084F85D002068F8
:10152000016821F040010160E1684FF4E0629142FE
:1015300001D9002001E04FF48050B1F5706F02D066
:10154000914200D0A562A188228901F4827102F43F
:1015500004421143227C02F002021143227D02F078
:1015600001021143228B02F400721143227F02F028
:101570003802114394F8202002F080021143228D9A
:1015800002F40052114322681160A169042202EAA8
:10159000114194F8242000F4805002F0100211430D
:1015A00094F8342002F008021143A28902F4706218
:1015B00011430143206841602566012084F85D00E5
:1015C000002070BD10B586B0044614216846FEF7B1
:1015D00036FE1349206888421FD11248016E41F43B
:1015E00080510166016E01F480510591C16C41F09A
:1015F0000101C164C06C694600F001000590C22081
:10160000009002200190002002900320039005200A
:1016100004904FF09040FFF7ABF806B010BD00000B
:1016200000300140001002402DE9F84F044690F8C8
:101630005C0000271D461646894601280DD04FF054
:10164000010B84F85CB0FFF769F9804694F85D00FF
:10165000BA46012804D00227A4E0022000F0A8B86E
:10166000B9F1000F74D0002E72D0032084F85D0011
:10167000C4F860A0C4F83890A687E687C4F840A0F4
:10168000A4F844A0A4F846A0C4F850A0C4F84CA004
:10169000A068B0F5004F09D12068016821F0400131
:1016A00001602068016841F48041016020680168A0
:1016B000490603D4016841F040010160E068B0F5DB
:1016C000E06F606823D908B1012E1CD1A06B21689E
:1016D0000088C86006E020688168890709D5A16B89
:1016E0000988C160A06B801CA063E08F401EE0876A
:1016F00009E0FFF713F9A0EB0800A84202D3681C29
:1017000001D046E0ADB3E08F0028E4D136E008B167
:10171000012E30D1E08F0128A06B03D92168008809
:10172000C8600FE021680078087314E0E08722E0C9
:1017300020688168890714D5E18F0129A16B08D938
:101740000988C160A06B801CA063E08F801EEDE75C
:1017500027E009780173A06B401CA063E08F401E56
:10176000E4E7FFF7DBF8A0EB0800A84202D3681C0F
:1017700001D00EE06DB1E08F0028D9D14246294654
:10178000204600F0FBFE08B120202066A06810B1C2
:1017900005E0032706E02068C16880680090206E9D
:1017A00000B1012784F85DB084F85CA0384655E7A5
:1017B00018BCBDE8E08F2DE9F05F044690F85C00AE
:1017C00000270A9E1D4692468B464FF001090128CC
:1017D0000ED0012084F85C00FFF7A0F8804694F852
:1017E0005D00616801280CD0B1F5827F07D102E06D
:1017F000022000F011B9A16809B9042801D002271C
:1018000000E1BBF1000F24D0BAF1000F21D005B3E5
:1018100094F85D00042802D0052084F85D000020C3
:101820002066C4F840A0A4F84650A4F84450C4F878
:1018300038B0E587A587E0642065E0684FF4E06193
:10184000884201D8012D06D92068426822F48052CE
:1018500005E00127D6E02068426842F480524260E9
:1018600020680268520603D4026842F04002026017
:10187000E0688842606845D908B1012D3AD1A06B73
:1018800021680088C860A06B801CA063E08F401EA8
:10189000E0872FE02068816889070FD5E18F69B163
:1018A000B9F1010F0AD1A16B0988C160A06B801C3E
:1018B000A063E08F401EE0874FF000092068816838
:1018C000C9070FD0B4F8461061B1C068216C088018
:1018D000206C801C2064B4F84600401EA4F846002A
:1018E0004FF00109FFF71AF8A0EB0800B04201D34E
:1018F000701C75D1E08F0028CCD1B4F846000028C8
:10190000C8D176E008B1012D6CD1E08F0128A06B21
:1019100008D921680088C860A06B801CA063E08F94
:10192000801E07E0216800780873A06B401CA0634C
:10193000E08F401EE08755E02068816889071AD54E
:10194000E18FC1B1B9F1010F15D1E18F0129A16B6F
:1019500007D90988C160A06B801CA063E08F801E3E
:1019600006E009780173A06B401CA063E08F401E65
:10197000E0874FF0000920688168C90728D0B4F8D3
:10198000461029B3B4F84610012914D9C068216C57
:101990000880206C801C2064B4F84600801EA4F8E7
:1019A0004600B4F84600012810D82068416841F488
:1019B000805141600AE0007B216C0870206C401C63
:1019C0002064B4F84600401EA4F846004FF0010918
:1019D000FEF7A4FFA0EB0800B04202D3701C01D0B8
:1019E00018E0BEB1E08F0028A6D1B4F84600002868
:1019F000A2D142463146204600F0C0FD10B1012779
:101A000020202066012084F85D00002084F85C001E
:101A10003846EEE60327F5E730BCBDE8C09F10B5B9
:101A2000401EB0F1807F01D3012010BD4FF0E024B3
:101A300060610F21601701F09FFA0020A06107206C
:101A40002061002010BD70477047704730B590F896
:101A50003C20012A37D0012280F83C20CA688C68DB
:101A600022F4407222434C6822F4806222430C68C4
:101A700022F4006222430C6922F4805222434C6912
:101A800022F4005222438C6A22F4804222430C8BBF
:101A900022F4702242EA04420C4D04680023AC4256
:101AA0000CD18D8C22F4700242EA0552CD6922F0ED
:101AB00080722A43096A22F000720A43626480F845
:101AC0003C30002030BD022030BD0000002C014021
:101AD000F0B590F83C20012A29D0012480F83C4040
:101AE000022280F83D2003685A689D68114EB34277
:101AF00003D122F470074A683A4322F070070A685B
:101B00003A435A600268B24205D0B2F1804F02D027
:101B1000094B9A4204D1896825F0800319439160EA
:101B200080F83D40002180F83C100846F0BD0220BE
:101B3000F0BD0000002C01400040014010B5040041
:101B400003D094F83D0010B107E0012010BD002043
:101B500084F83C00204600F023F8022084F83D0081
:101B6000211D206800F066FE012084F8480084F8FA
:101B70003E0084F83F0084F8400084F8410084F877
:101B8000420084F8430084F8440084F8450084F857
:101B9000460084F8470084F83D00002010BD000096
:101BA00008B500680B49884212D10B48016E41F418
:101BB00000610166006E002200F400600090114692
:101BC0001B20FEF70FFFBDE808401B20FEF7FCBE00
:101BD00008BD0000002C01400010024070B5044612
:101BE00090F83C00012817D0012584F83C500220D1
:101BF00084F83D00226890682E4B184020F47F4006
:101C000090600868502830D00DDC20284DD005DCCD
:101C100098B310283BD148E0022070BD302844D052
:101C2000402834D139E0602828D0702806D0B0F59B
:101C3000805F2CD0B0F5005F29D10AE0CB68D1E9F4
:101C40000121206800F039FE2068816841F07701A9
:101C500009E0CB68D1E90121206800F02EFE206860
:101C6000816841F48041816011E0CA684968206858
:101C700000F074FF5021206807E016E0CA68496848
:101C8000206800F07CFF6021206800F020FE84F8CE
:101C90003D50002084F83C0070BDCA684968206847
:101CA00000F05CFF40212068EFE722680146104603
:101CB000EBE7000088FFFEFF704770B50446006840
:101CC00001694FF00005C943890715D4C168C943AC
:101CD000890711D4E91E01610120207720688069FD
:101CE0008007204602D0FFF7E7FF04E000F0D2F8BB
:101CF000204600F091F9257720680169C94349071A
:101D000017D4C168C943490713D46FF004010161B6
:101D1000022020772068806910F4407F204602D09E
:101D2000FFF7CAFF04E000F0B5F8204600F074F9B0
:101D3000257720680169C943090716D4C168C943DA
:101D4000090712D46FF00801016104202077206890
:101D5000C0698007204602D0FFF7AEFF04E000F024
:101D600099F8204600F058F9257720680169C943A1
:101D7000C90617D4C168C943C90613D46FF010014E
:101D80000161082020772068C06910F4407F204658
:101D900002D0FFF791FF04E000F07CF8204600F04D
:101DA0003BF9257720680169C943C90708D1C16893
:101DB000C943C90704D1891E0161204600F096F984
:101DC00020680169C943090609D4C168C9430906E5
:101DD00005D46FF0800101612046FFF735FE2068D1
:101DE0000169C943C90509D4C168C943090605D4B5
:101DF0006FF4807101612046FFF725FE20680169BC
:101E0000C943490609D4C168C943490605D46FF0DE
:101E100040010161204600F06AF920680169C94368
:101E200089060BD4C168C943890607D46FF0200125
:101E300001612046BDE87040FFF707BE70BD00009D
:101E400010B586B0044614216846FEF7F8F90F492C
:101E50002068884217D10E48C16C41F00101C1646D
:101E6000C06C694600F0010005904FF4807000904E
:101E700002200190002002900390012004904FF076
:101E80009040FEF775FC06B010BD0000002C01402C
:101E900000100240704770B5044690F83C000D46B3
:101EA00001280BD0012084F83C000C2A45D007DC27
:101EB0005AB1042A1BD0082A78D12CE0022070BD28
:101EC000102A4ED0142A71D15DE0206800F008FD80
:101ED0002068816941F0080181612068816921F0F1
:101EE00004018161206881692A69114311E0206839
:101EF00000F032FD2068816941F400618161206851
:101F0000816921F480618161206881692A6941EADF
:101F1000022181614AE0206800F05AFD2068C16911
:101F200041F00801C1612068C16921F00401C1616B
:101F30002068C1692A69114311E0206800F082FD20
:101F40002068C16941F40061C1612068C16921F460
:101F50008061C1612068C1692A6941EA0221C161C9
:101F600024E0206800F09EFD2068416D41F00801EA
:101F700041652068416D21F0040141652068416D93
:101F80002A69114311E0206800F0BAFD2068416D14
:101F900041F4006141652068416D21F48061416533
:101FA0002068416D2A6941EA02214165002084F8D8
:101FB0003C0070BD10B5040003D094F83D0010B192
:101FC00007E0012010BD002084F83C00204600F00E
:101FD00022F8022084F83D00211D206800F02AFC30
:101FE000012084F8480084F83E0084F83F0084F81B
:101FF000400084F8410084F8420084F8430084F8EB
:10200000440084F8450084F8460084F8470084F8CA
:102010003D00002010BD70477047000010B5044619
:10202000022269B1042912D0082917D00C291CD02A
:10203000102921D094F84300012824D0012010BD9C
:1020400094F83E000128F9D184F83E201DE094F870
:102050003F000128F2D184F83F2016E094F84000B8
:102060000128EBD184F840200FE094F841000128CA
:10207000E4D184F8412008E094F842000128DDD141
:1020800084F8422001E084F843200122206800F017
:1020900007FC12492068124A884204D0904202D0BC
:1020A000104B984203D1436C43F4004343642068CF
:1020B000884204D0B0F1804F01D0904207D18168AE
:1020C000094A1140062906D0B1F5803F03D00168C6
:1020D00041F001010160002010BD0000002C014012
:1020E0000040014000440140070001007047704774
:1020F00010B5040002D0A06F10B107E0012010BDA0
:10210000002084F87400204600F026F82420A06700
:102110002068016821F001010160204600F0D4FD33
:102120000128ECD0606A10B1204600F03AFD20682A
:10213000416821F4904141602068816821F02A01C2
:1021400081602068016841F0010101602046BDE81E
:10215000104000F08ABD000010B586B0044614217E
:102160006846FEF76CF81349206888421FD1124870
:10217000816D41F400318165816D01F4003105917B
:10218000C16C41F00101C164C06C694600F00100FE
:1021900005900C2000900220019000200290032066
:1021A0000390072004904FF09040FEF7E1FA06B04C
:1021B00010BD000000440040001002402DE9F8432B
:1021C0000446806F1F4616460D4620284FD1CDB1DC
:1021D000C6B194F87400012849D0012084F8740035
:1021E0004FF00008C4F880802120A067FEF796FB1E
:1021F000A4F850608146A4F85260A068B0F5805FF2
:1022000003D004E00120BDE8F883206928B12E4600
:102210005FF0000584F8748010E00026FAE7802162
:10222000204600F041FEB8B9C6B116F8010B21688E
:102230000885B4F85200401EA4F85200B4F85200C9
:102240004B464FF0000200970028E8D14FF04001C4
:10225000204600F029FE30B10320D4E735F8020B08
:10226000C0F30800E3E72020A0670020CBE70220AE
:10227000C9E7FEE7114810B50F4901604FF48271BC
:10228000416000214FF47062C0E902124FF4007205
:102290000161C0E90512C161016207224162C0E922
:1022A0000A12016308214163FFF71CF9002801D0DD
:1022B00072B6FEE710BD00000030014010000020A3
:1022C00010B59AB00024179418941594169412948B
:1022D00013941C210BA81494FDF7B1FF2C21684620
:1022E000FDF7ADFF2A48294901600321C0E9011427
:1022F0003C21C0E9031444618461FFF71FFC08B16D
:1023000072B6FEE74FF48050159015A92048FFF7EC
:1023100065FC08B172B6FEE71D48FFF74BFE08B139
:1023200072B6FEE71294139412A919481494FFF799
:10233000CFFB08B172B6FEE76020CDE90B040D9427
:102340000E940F94109400220BA911481194FFF7DA
:10235000A2FD08B172B6FEE700944FF40050CDE93B
:10236000044001940294039400030694CDE90740CD
:102370000994694606480A94FFF768FB08B172B6EB
:10238000FEE70348FFF75CFD1AB010BD002C0140CA
:10239000740000200C4810B50A4901604FF4165132
:1023A0004160002181600C22C160C0E9041281619A
:1023B000C16101624162FFF79BFE002801D072B645
:1023C000FEE710BD00440040C0000020FEE7FEE72D
:1023D000704700002DE9F041444C05468846E0680E
:1023E0000026810728680DD0E16801F003018142D1
:1023F00016D1A8B1E0686968C0F30210401C884299
:102400000ED120E0012804D0022805D0032807D1EE
:1024100008E02168890701E021684905002907DBF8
:1024200001265FE02168890302D421684903F5E7AA
:10243000E1686A686FF00F0321F0730103EB021289
:1024400011430143E160206820F080602060FEF7C6
:1024500065FA074605E000BFFEF760FAC01B0228D8
:1024600037D820680001F7D4B8F1000F18D0B8F1C0
:10247000010F1DD0287D4FF07E41400801EB4060E8
:10248000A96840EA01202169194A114008432061E6
:10249000206840F080602060FEF740FA07461AE0AE
:1024A000A868297B000240EAC1602169114AECE773
:1024B000288A1149400801EB4050A96840EA0120F0
:1024C00021690E4AE1E700BFFEF728FAC01B022887
:1024D00001D9032606E020680001F5D52069A96925
:1024E000084320613046BDE8F08100000010024042
:1024F000FF80FFF9FF80FF070000E0FFFF809FFFE4
:10250000F8B51C4D06460024A86DC00002D5FEF7A4
:10251000CFFA0DE0A86D40F08050A865A86D00F0DE
:1025200080500090FEF7C4FAA96D21F08051A96592
:10253000B0F5007F04D0802E07D94FF003040AE0E5
:10254000802E08D9A02E01D804E001D1022402E097
:10255000702E00D101240848016821F007012143B1
:102560000160006800F00700A04201D00120F8BD22
:102570000020F8BD0010024000200240F8B51546CA
:102580000E460B460092044600224FF4C05100F064
:1025900019F888B93346002280212046009500F0C2
:1025A0007BF848B9334600224FF4C06120460095BD
:1025B00000F008F8002804D0206E40F020002066CB
:1025C0000320F8BD2DE9FC47994617460E46044600
:1025D0000A9DFEF7A3F9411BA9EB0105FEF79EF941
:1025E00080462A484FF4C06A0068C0EBC00000EB88
:1025F0008000000D6843009040E0564502D10FB9BD
:10260000007B0190B9F1FF3F38D0FEF787F9A0EBCE
:102610000800A84203D215B1009860B32CE02068EE
:10262000416821F0E00141606068B0F5827F0BD124
:10263000A068B0F5004F02D0B0F5806F04D12068DB
:10264000016821F040010160A06AB0F5005F09D186
:102650002068016821F4005101602068016841F49C
:1026600000510160012084F85D00002084F85C00C6
:10267000032000F00DB80025401E009020688168FE
:102680003140B942B9D10020F3E700000C0000202E
:102690000CBCBDE8F08700002DE9F8431E469146CA
:1026A00088460446089DFEF739F9401B351AFEF7A7
:1026B00035F9074625480068C0F3CB30684338E059
:1026C000701C37D0FEF72AF9C01BA84203D215B1FF
:1026D000009860B32CE02068416821F0E00141607F
:1026E0006068B0F5827F0BD1A068B0F5004F02D0D2
:1026F000B0F5806F04D12068016821F040010160CD
:10270000A06AB0F5005F09D12068016821F400518A
:1027100001602068016841F400510160012084F8E3
:102720005D00002084F85C000320BDE8F8830025EC
:10273000401E00902068816838EA010004D0002122
:102740004945BDD10020F0E70121F9E70C00002048
:102750007047FEF7E9B8000010B5ACB044216846F8
:10276000FDF76DFD142126A8FDF769FD542111A880
:10277000FDF765FDFEF7A4F91B4850F8901F21F006
:102780001801016014200090012000240290CDE97E
:102790000604702008900A946846FEF7EDFB08B125
:1027A00072B6FEE70F20CDE9260428942994002173
:1027B00026A82A94FEF7DAFA08B172B6FEE70220DC
:1027C00011901A9411A8FEF78BF908B172B6FEE7C2
:1027D0004FF40070FEF738F908B172B6FEE7FEF765
:1027E00077F92CB010BD0000001002400B480168C2
:1027F00041F4700101600A48016841F00101016083
:10280000002181600268074B1A4002608214C26096
:10281000026822F4802202608161704788ED00E046
:1028200000100240FFFFF6EA0148FFF746BA000039
:102830007400002070B50268164B4FF08046984235
:1028400001D0B04203D122F070044A682243124CF6
:10285000124D984205D0B04203D0A04201D0A84208
:1028600003D122F44076CA6832434E6922F08002D6
:10287000324302608A68C2620A688262984203D068
:10288000A04201D0A84201D109690163012141613F
:1028900070BD0000002C0140004001400044014098
:1028A00010B501F01F030121046A99408C430462B2
:1028B000016A9A401143016210BD10B5846842EA72
:1028C000032224F47F440A432243826010BD8268BD
:1028D00022F070020A4342F0070181607047000055
:1028E000F0B5026A22F001020262056A4368826959
:1028F000154C25F0020522400C6822F00302144317
:102900008A68134E2A43114D124FA84203D0B04299
:1029100001D0B84206D122F0080CCA6842EA0C0283
:1029200022F00402A84203D0B04201D0B84205D13F
:102930004D6923F440731D438B692B4343608461CD
:10294000496841630262F0BD8FFFFEFF002C014029
:10295000004001400044014030B5026A22F01002FC
:102960000262046A42688369154D2B400D6823F4A6
:10297000407343EA052524F020038C6843EA0413DE
:10298000104CA04207D1CC6823F0800343EA041323
:1029900023F0400305E00C4CA04202D00B4CA042B7
:1029A00007D14C6922F4406242EA84028C6942EA0F
:1029B00084024260856149688163036230BD000022
:1029C000FF8FFFFE002C0140004001400044014009
:1029D00030B5026A22F480720262046A4268C369F6
:1029E000144D2B400D6823F003031D4324F40073A2
:1029F0008C6843EA0423104CA04207D1CC6823F42E
:102A0000006343EA042323F4806305E00B4CA042F7
:102A100002D00B4CA04207D14C6922F4405242EA4A
:102A200004128C6942EA04124260C5614968C163BC
:102A3000036230BD8FFFFEFF002C014000400140CB
:102A40000044014030B5026A22F480520262046AF6
:102A50004268C3690F4D24F400542B400D6823F4E1
:102A6000407343EA05238D6844EA05340A4DA842C1
:102A700005D00A4DA84202D0094DA84204D14D69A3
:102A800022F4804242EA85124260C36149680164CF
:102A9000046230BDFF8FFFFE002C0140004001406A
:102AA0000044014030B5026A22F480320262046AB6
:102AB0004268436D0E4D2B400D681D4324F40033D6
:102AC0000C8943EA04430B4CA04205D00A4CA042B7
:102AD00002D00A4CA04204D14C6922F4803242EA6E
:102AE00004224260456549688165036230BD00008B
:102AF0008FFFFEFF002C01400040014000440140D8
:102B000030B5026A22F480120262046A4268436DA0
:102B10000E4D24F400142B400D6843EA05230D8963
:102B200044EA05540A4DA84205D00A4DA84202D0F5
:102B3000094DA84204D14D6922F4802242EA85223F
:102B4000426043654968C165046230BDFF8FFFFE86
:102B5000002C0140004001400044014010B5036AD0
:102B6000046A24F001040462846924F0F00444EA55
:102B7000021423F00A020A438461026210BD10B5F8
:102B8000036A23F0100303628369046A23F4704329
:102B900043EA023224F0A00343EA01118261016298
:102BA00010BD90F82410C90706D001684A68836AEE
:102BB00022F400321A434A6090F82410890706D59F
:102BC00001684A68C36A22F480321A434A6090F866
:102BD0002410490706D501684A68036B22F4802255
:102BE0001A434A6090F82410090706D501684A681C
:102BF000436B22F400421A434A6090F82410C9063D
:102C000006D501688A68836B22F480521A438A6071
:102C100090F82410890606D501688A68C36B22F4EF
:102C200000521A438A6090F82410490611D50168B1
:102C30004A68036C22F480121A434A60016CB1F5B1
:102C4000801F06D101684A68436C22F4C0021A430F
:102C50004A6090F82410090606D501684A68806C1D
:102C600022F4002202434A607047F8B50026044669
:102C7000C0F88060FDF752FE0546206800686FF0DE
:102C80007E47000708D52B4600224FF4001120464E
:102C9000009700F009F960B92068006840070AD57C
:102CA0002B4600224FF480012046009700F0FCF8EC
:102CB00008B10320F8BD2020A067E067266684F8ED
:102CC00074600020F8BD00002DE9F0410446006862
:102CD0002269A168E6691143626900253243114304
:102CE0006A4B02686A4E32400A43026020684168BB
:102CF000E26821F44051114341602168A069994282
:102D000001D0226A10438A6822F4306202438A604A
:102D10006049276860488F420DD1D0F8880010F0D4
:102D2000030006D0012838D0022834D0032821D14E
:102D300035E001211FE059498F420BD1D0F88800BE
:102D400010F00C0025D0042827D0082823D00C2808
:102D500010D124E09F420DD1D0F8880010F44060DB
:102D600017D0B0F5806F18D0B0F5006F13D0B0F564
:102D7000406F14D010214A4800264FF400429F4271
:102D80002DD171B1022912D004290DD0082971D199
:102D900023E00021EFE70221EDE70421EBE7082122
:102DA000E9E7FEF773F801E0FEF794F8E8B362682C
:102DB00002EB420181425DD8B0EB023F5AD8010ECE
:102DC00003025008181871410023FDF7FDF9354A38
:102DD000A0F54071914251D94CE01046E7E7E36914
:102DE0004FF6EF77934229D1092943D2DFE801F06A
:102DF00005080E420B4242422400FEF747F804E069
:102E0000FEF756F801E0FEF765F870B14100606822
:102E100001EB5001B1FBF0F080B2A0F11001B9421A
:102E200028D84FF6F071014000E029E0C0F34200DD
:102E300001432068C16023E01046E7E7092919D261
:102E4000DFE801F005080E180B1818181A00FEF735
:102E50001DF804E0FEF72CF801E0FEF73BF878B12E
:102E6000616800EB5100B0FBF1F080B2A0F11001FD
:102E7000B94203D9012503E01046F1E72168C86093
:102E800066662846A666BDE8F08100000080004026
:102E9000F369FFEF00380140001002400044004099
:102EA0000024F400FFFC0F002DE9F0479A46174676
:102EB0000E4604464FF000094FF02008089D39E007
:102EC000681C37D0FDF72AFDA0EB0A00A84222D8E3
:102ED0000DB32068016849072CD5C069C0430005BF
:102EE00028D421684FF4006008622068016821F44A
:102EF000D07101602068816821F001018160C4F80F
:102F00007880C4F87C80C4F8808000BF84F8749016
:102F10000320BDE8F0872068016821F4D0710160CA
:102F20002068816821F001018160C4F87880C4F8CC
:102F30007C80EBE72068C06936EA000004D00020FE
:102F4000B842BDD00020E4E70120F9E7FEE7000029
:102F50000FB4084B10B504A902AA039800F02CF88E
:102F6000044602A9002000F0D4F8204610BC5DF809
:102F700014FB0000133100080907090E002804DBC8
:102F800000F1E02080F80014704700F00F0000F11D
:102F9000E02080F8141D704702E008C8121F08C125
:102FA000002AFAD170477047002001E001C1121FCA
:102FB000002AFBD1704700002DE9FF4F89B09B46E6
:102FC0000446002506E025280BD05A460B99904769
:102FD000641C6D1C20780028F5D10DB0284600F047
:102FE00095B80027B8460122474900E0074314F886
:102FF000013F203B02FA03F00842F7D120782E2847
:1030000019D114F8010F47F004072A280ED06FF0E9
:103010002F022078A0F1300109290CD808EB880193
:1030200002EB410100EB0108641CF2E70A98641C02
:1030300050F8048B0A9020780028CED0642808D05D
:10304000692806D075281ED05A460B9990476D1CEA
:1030500058E00A994FF00A0901C90A91002802DADA
:1030600040422D2102E0390504D52B218DF8201096
:10307000012103E0F90704D02021F7E78A4608AED2
:103080000DE00021FAE70A994FF00A0901C90A91F7
:10309000F7E74946FDF7A1FA303106F8011D00288F
:1030A000F7D1ADEB060000F12009780701D44FF00D
:1030B0000108C84502DDA8EB090000E000208046B9
:1030C000002706E008A85A46C05D0B9990476D1C82
:1030D0007F1C5745F6DB04E030205A460B99904799
:1030E0006D1CB8F10001A8F10108F5DC05E016F847
:1030F000010B5A460B9990476D1CB9F10001A9F1DB
:103100000109F4DC641C65E70928010030BCBDE856
:10311000C08F0A68531C0B60107070472DED068B32
:1031200086B0FDF709FCFFF717FB14216846FDF791
:1031300086F8CA48C16C41F00401C164C16C01F059
:1031400004010591C16C41F00101C164C06C4FF4F0
:10315000805400F001004FF0904505900022214678
:103160002846FDF7D6FB0120CDE90040002402945B
:10317000694628460394FDF7FBFAFFF77BF8FFF753
:103180009FF8FFF707F90021B548FEF747FFB4495C
:103190001D2009684863002641F288359FEDB1ABD8
:1031A00000F072F941F65050ADF80400AC48ADF8AB
:1031B00008402B46012201A96438FEF735FAA848D9
:1031C000ADF80440012302AA01A964380095FEF776
:1031D000F2FABDF8088000F057F94FF4EB50ADF863
:1031E00004009F48ADF808402B46012201A964382D
:1031F000FEF71AFA9A48ADF80440012302AA01A981
:1032000064380095FEF7D7FABDF80800049000F086
:103210003BF941F69050ADF804009148ADF80840F4
:103220002B46012201A96438FEF7FEF98C48ADF85F
:103230000440012302AA01A964380095FEF7BBFAF5
:10324000BDF8087000F020F94FF4ED50ADF804001F
:103250008348ADF808402B46012201A96438FEF7E7
:10326000E3F97F48ADF80440012302AA01A96438BC
:103270000095FEF7A0FABDF8081007F03F020846D7
:1032800062F39F1081464FEA911B4FEAC870410DCF
:1032900004984FEA580341EA90104FEA971A0393B3
:1032A000049000F0F1F86E4F643F38467C617C6218
:1032B000FEF718F94FF47460ADF80400ADF808405B
:1032C0002B46012201A93846FEF7AEF92420FDF76E
:1032D0003DFAADF80440012302AA01A93846009541
:1032E000FEF769FABDF808104FF6FF7000EA4108D2
:1032F00000F0CAF87C6138467C62FEF7F3F84FF4C0
:103300007260ADF80400ADF808402B46012201A917
:103310003846FEF789F92420FDF718FAADF8044085
:10332000012302AA01A938460095FEF744FABDF828
:1033300008104FF6FF7000EA410104984FF49E42D6
:1033400002EBC000091AAAF500704FEA890248434F
:1033500002EB2032039B0BFB01F003EBA021A8F54D
:10336000E05001F5C0414143C2EBA13000EB8000C9
:10337000410040F6C41000EB6110FDF7FEF853EC7D
:103380001A2BFDF78BF841EC180B002E42D0012EC2
:1033900046D0761C022EFFF603AF00BF53EC192B6C
:1033A00051EC180BFCF7F7FFFDF7F8F8002800DAEE
:1033B000404264214843FDF7E0F89FED2C1B53EC9D
:1033C000112BFDF76BF89FED2B1B53EC112BFCF72A
:1033D000F0FFFDF7E3F80746024628A103A8FFF730
:1033E000B7FD1F48C8230A2203A94C30FEF7E6FEAA
:1033F0001B48C823022222A14C30FEF7DFFE1848EA
:10340000C82302221FA14C30FEF7D8FE022F1CDC7D
:1034100000221BE0B0EE489AF0EE689A0126BFE663
:1034200053EC182B51EC190BFCF7B5FFFDF7B6F870
:10343000002800DA4042012801DD0026B0E6B0EEA7
:10344000489AF0EE689A0226A8E701224FF48051CC
:103450004FF09040FDF75DFAA2E600000010024038
:103460007400002000000000000024400000000064
:103470000029C340000000000000594025640000FE
:103480000D0000000A0000001CB50D4C002020615A
:10349000606160622046FEF725F80A4941F28833F0
:1034A0000222D1E90001CDE9000169462046FEF77C
:1034B000BBF8102060622046FEF714F81CBD000027
:1034C00010000020C834000815000000405500001E
:1034D00000000000000000000102030406070809C4
:1034E000A0860100400D0300801A060000350C0084
:1034F00040420F0080841E0000093D0000127A0047
:103500000024F40000366E010048E801006CDC0283
:10351000000000000102030438350008000000200C
:1035200010000000982F0008483500081000002007
:1035300038050000A82F000801000000100000005E
:083540000000000000093D003D
:040000050800018D61
:00000001FF
